:020000040800F2
:10000000201000203D680008A1100008A31000087F
:10001000A5100008A7100008A910000800000000A3
:10002000000000000000000000000000AB1000080D
:10003000AD10000800000000AF100008B11000086B
:100040005768000857680008576800085768000894
:100050005768000857680008576800085768000884
:1000600057680008B11C0008576800085768000866
:100070005768000857680008576800085768000864
:100080005768000857680008576800085768000854
:100090005768000857680008576800085768000844
:1000A0005768000857680008576800085768000834
:1000B00057680008618C00085768000857680008F6
:1000C0005768000857680008576800085768000814
:1000D0005768000851430008C948000847640008F1
:1000E00057680008576800085768000857680008F4
:1000F00057680008576800085768000857680008E4
:1001000057680008576800085768000857680008D3
:10011000634F000833460008318D0008215900085C
:1001200057680008576800085768000857680008B3
:1001300057680008576800085768000857680008A3
:100140005768000857680008576800085768000893
:1001500057680008576800089F4400081386000885
:100160005768000857680008576800085768000873
:100170005768000857680008576800085768000863
:100180005768000857680008DFF80CD009F078F9C4
:10019000004800479D010008201000202DED0E8B27
:1001A000CAB02022FD4942A808F0E4FD0024202125
:1001B00038A808F0F8FD202130A808F0F4FD20212F
:1001C00028A808F0F0FD002500264FF4A06006F0F6
:1001D00047FBA82006F044FA4FF4E137384606F012
:1001E000A5FA4FF4165004F0E3FD04F003F8384686
:1001F00004F0B8F94FF4964004F062FE05F057FBA6
:1002000008F029FC01F01EF801F039F8DFF89093AE
:100210000120C9F8A802C9F8A0020021C9F89C125F
:10022000C9F89802DF4A1060DF48C0F88C1205F068
:10023000C4FD05F0A5FB01F057FD5321FA2001F0A4
:10024000A7FBDA4F0021384607F002F900213846B3
:1002500007F000F90021384607F0FEF80021384683
:1002600007F0FCF84FF47A7006F03BFA4FF4FA7A94
:10027000504606F036FA0027DFF8348398F801007C
:1002800008B905F0AFFF98F80100012801D104F08A
:10029000F5FD7F1C022FF1DBC64F9DED420B97ED64
:1002A000001B53EC102B51EC110B08F028FE98EDBD
:1002B000068B53EC182B08F09AFECDE938019DED22
:1002C000440B97ED021B53EC102B51EC110B08F073
:1002D00016FE53EC182B08F08AFECDE93A019DED8D
:1002E000460B97ED041B53EC102B51EC110B08F04F
:1002F00006FE53EC182B08F07AFECDE93C019DED8B
:10030000480B97ED061B53EC102B51EC110B08F02A
:10031000F6FD53EC182B08F06AFECDE93E010027EC
:10032000F8B204F043FE0A2006F0DBF97F1C062F2A
:10033000F6DB0027F8B204F05DFE0A2006F0D1F9E2
:100340007F1C062FF6DB00279949F8B2896804F074
:1003500075FE0A2006F0C5F97F1C062FF4DB514616
:10036000042005F0F7FA94480068012803D1012120
:10037000924806F039FF9FED92BB9FED938B944F0F
:100380009FED94CB9FED95DB9FED96EBFDE3002574
:100390004FF0010808F0FF0004F02CFE0A2006F0E0
:1003A000A0F908F10108B8F1050FF3DBDFF83C9282
:1003B00099F8000000287CD14FF4487ADFF83082A9
:1003C00025E003F054FE002001F052F887ED008B89
:1003D00087ED028B87ED048B87ED068B854880EDDA
:1003E000008B80ED028B80ED048B80ED068B82A06C
:1003F00009F084F885A120A809F090F820A804F05D
:100400002AFA322006F06DF987480A210170D8F8DF
:100410001000504503DA99F800000028D1D08CBBB9
:10042000DFF804A200218AF80010D8F8102040F26A
:100430004C40824201DA4FF0010423DD8B461CE080
:1004400003F015FE05F099FA78A009F057F87FA19E
:1004500020A809F063F820A804F0FDF90A2006F0AE
:1004600040F90B208AF80000D8F8101040F24C40F8
:10047000814202DA01248AF800B01CB999F8000020
:100480000028DDD005F079FA03F0F1FDD8F810105E
:1004900040F24C40814208DA87ED008B87ED028BF9
:1004A00087ED048B87ED068B03E03E490120183968
:1004B000086099F80000012803D105F05EFA03F006
:1004C000D6FDDFF8EC9099F8000001F0BAF80928A1
:1004D0000AD287ED008B87ED028B87ED048B87EDC9
:1004E000068B64A009F00AF899F80600012822D1C9
:1004F000D9F80C0008F040FEDFF89C8198ED001B55
:1005000053EC112B08F064FE15D8D9F80C0008F054
:1005100033FE98ED001B53EC112B08F059FE0AD85E
:1005200087ED008B87ED028B87ED048B87ED068BC3
:100530005AA008F0E3FFDFF8BC8053EC1B2B98EDCA
:10054000000B51EC100B08F0DAFC41EC100B09F039
:10055000E3F9DFF860A0B0EE409AF0EE609A9DED0E
:10056000420B9AED001B53EC102B51EC110B08F0D1
:10057000C6FC41EC100B09F0CFF9B0EE401AF0EEDA
:10058000601A53EC192B51EC110B08F021FE04D822
:1005900098ED000BB0EE4BAA8EE034E128AE0008D7
:1005A00000804242AC0240420080414200000140D3
:1005B00028000020280400200C8242420014004041
:1005C000676666666666B63F0000000000000000D1
:1005D0006804002000000000000046400000000009
:1005E0000000244000000000000059408C0600205C
:1005F000AC0400204804002020D2A3BFD8C6F7CE08
:10060000B4C1ACBDD3A3A10D0A00000074362E7492
:1006100078743D22D2A3BFD8C6F7CEB4C1ACBDD347
:10062000A3A122FFFFFF0000A300002020C7EBBD15
:10063000ABD2A3BFD8C6F7D3CDC3C5B0E2B5BDD743
:10064000EECFC2B7BDA3A10D0A00000074362E7410
:1006500078743D22C7EBBDABD2A3BFD8C6F7D3CDCC
:10066000C3C5B0E2B5BDD7EECFC2B7BD2122FFFFF3
:10067000FF00000020D7AACDE4BDC7B6C8B9FDB4BD
:10068000F3A3ACB4A5C5F6B5BDD0D0B3CCBFAAB961
:10069000D8A3A10D0A0000007803002020CDA3B349
:1006A000B5A3ACC9B2B3B5B9CAD5CFC7EBBCECB230
:1006B000E9A3A10D0A000000F0EE6BAA53EC1A2B7F
:1006C00051EC100B08F07AFB41EC100B09F024F907
:1006D000B0EE409AF0EE609A9DED420B9AED001B51
:1006E00053EC102B51EC110B08F009FC41EC100BF2
:1006F00009F012F9B0EE401AF0EE601A53EC192B23
:1007000051EC110B08F04CFD7DD898ED020B53EC29
:100710001A2B51EC100B08F0F2FB41EC100B09F016
:10072000FBF8B0EE409AF0EE609A9DED440B9AED26
:10073000021B53EC102B51EC110B08F0E0FB41ECC9
:10074000100B09F0E9F8B0EE401AF0EE601A53EC25
:10075000192B51EC110B08F03BFD54D898ED020B0E
:1007600053EC1A2B51EC100B08F028FB41EC100B4A
:1007700009F0D2F8B0EE409AF0EE609A9DED440B8D
:100780009AED021B53EC102B51EC110B08F0B7FB48
:1007900041EC100B09F0C0F8B0EE401AF0EE601A10
:1007A00053EC192B51EC110B08F0FAFC2BD898EDF7
:1007B000040B53EC1A2B51EC100B08F0A0FB41EC8E
:1007C000100B09F0A9F8B0EE409AF0EE609A9DED9A
:1007D000460B9AED041B53EC102B51EC110B08F057
:1007E0008EFB41EC100B09F097F8B0EE401AF0EEDA
:1007F000601A53EC192B51EC110B08F0E9FC7FD86F
:1008000098ED040B00E07BE053EC1A2B51EC100B3D
:1008100008F0D4FA41EC100B09F07EF8B0EE409AE3
:10082000F0EE609A9DED460B9AED041B53EC102BF5
:1008300051EC110B08F063FB41EC100B09F06CF864
:10084000B0EE401AF0EE601A53EC192B51EC110B7C
:1008500008F0A6FC54D898ED060B53EC1A2B51EC7B
:10086000100B08F04CFB41EC100B09F055F8B0EE02
:10087000409AF0EE609A9DED480B9AED061B53EC02
:10088000102B51EC110B08F03AFB41EC100B09F066
:1008900043F8B0EE401AF0EE601A53EC192B51EC0D
:1008A000110B08F095FC2BD898ED060B53EC1A2B86
:1008B00051EC100B08F082FA41EC100B09F02CF807
:1008C000B0EE409AF0EE609A9DED480B9AED061B53
:1008D00053EC102B51EC110B08F011FB41EC100BF9
:1008E00009F01AF8B0EE401AF0EE601A53EC192B2A
:1008F00051EC110B08F054FC02D84FF0010A01E052
:100900004FF0000A97ED000B53EC182B51EC100B35
:1009100008F046FC3AD197ED020BB0EE489AF0EEA3
:10092000689A53EC192B51EC100B08F039FC2DD1BF
:1009300097ED040B53EC192B51EC100B08F030FC25
:1009400024D197ED060B53EC192B51EC100B08F04A
:1009500027FC1BD1BAF1000F18D099F80500012827
:1009600004D1FE490860FEA008F0C8FD99F8050012
:1009700060B94098401C4090152807D1F7480021E5
:100980000160FBA008F0BAFD0020409099F8020039
:10099000012833D1DFF8E4A34FF47A7BDAF80010B2
:1009A00059451EDDB0EE489AF0EE689A87ED009B3F
:1009B00087ED029B87ED049B87ED069BF0A008F076
:1009C0009DFDF4A120A808F0A9FD20A803F043FF95
:1009D000F7480821017099F8030010B9012089F83F
:1009E0000300DAF80000584508DA99F803000128F6
:1009F00004D1EF490020087089F80300ED48007821
:100A000000F081FE9DED380B98ED001B53EC102B90
:100A100051EC110B08F073FA9DED2A1B53EC112BCE
:100A200008F06DFADFF8909399ED001B53EC112B51
:100A300008F068FA41EC100B042004F024FB0C20B1
:100A400005F04FFE9DED3A0B98ED021B53EC102B79
:100A500051EC110B08F0B2F99DED2A1B53EC112B50
:100A600008F04DFA99ED001B53EC112B08F0A6F994
:100A700041EC100B012004F006FB0C2005F031FEC8
:100A80009DED3C0B98ED041B53EC102B51EC110B1E
:100A900008F035FA9DED2A1B53EC112B08F02FFAC4
:100AA00099ED001B53EC112B08F088F941EC100B69
:100AB000022004F0E8FA0C2005F013FE9DED3E0B39
:100AC00098ED061B53EC102B51EC110B08F076F946
:100AD0009DED2A1B53EC112B08F011FA99ED001B28
:100AE00053EC112B08F00EFA41EC100B032004F02C
:100AF000CAFA0C2005F0F5FD97ED000B002000F080
:100B0000BFFF97ED040B022000F0BAFF97ED020B38
:100B1000012000F0B5FF97ED060B032000F0B0FFB9
:100B200098ED060B9FEDA59B51EC100B53EC192B88
:100B300008F05DFA9FEDA3AB53EC1A2B08F0E5F932
:100B400098ED020B8B46824653EC192B51EC100B9F
:100B500008F04DFA53EC1A2B08F0D7F9CDE91E0135
:100B600098ED040B53EC192B51EC100B08F03FFAE5
:100B700053EC1A2B08F0C9F9CDE91C0198ED000BD4
:100B800053EC192B51EC100B00E0E5E008F02FFAC4
:100B900053EC1A2B08F0B9F980468C48894653EC7F
:100BA000192B90ED060B51EC100B08F020FA53ECCA
:100BB0001A2B08F0AAF941EC100B854853EC102BC6
:100BC00000681A90814890ED021B8DED181B90ED86
:100BD000041B80488DED161B90ED001B7E488DEDAB
:100BE000141B90ED001B8DED121B97ED061B8DED78
:100BF000101B97ED021B8DED0E1B97ED041B8DED69
:100C00000C1B97ED001B8DED0A1BDDE91E01CDE9E4
:100C100008ABCDE90601DDE91C01CDE904016B4813
:100C2000CDE9028990ED081B6C488DED001B08F0A2
:100C300065FCDFF8AC91D9F8A40278B10020C9F8BE
:100C4000A4026849D1F8800250B10020C1F88002A6
:100C50004198401C419015287ED103E00120EEE729
:100C60000120F3E70020419005F03AFBDFF86881AE
:100C700053EC1C2B98ED000B51EC100B08F090FA84
:100C800009D23046761C44F25061884203DD0020D0
:100C9000C9F8A80200E0002698ED009B51EC190B62
:100CA00008F032FA814608F011FA53EC192B08F0DB
:100CB00029F953EC1D2B08F028F908F025FA034612
:100CC0004A4649A120A808F029FC20A803F0C3FD4A
:100CD000B0EE4C0AF0EE6C0A53EC102B98ED000BC2
:100CE00051EC100B08F00BF99FED441B53EC112B4A
:100CF00008F07DF953EC1E2B08F007F908F004FA10
:100D00008046B8F1140F24DB3EA120A808F006FCB1
:100D100020A803F0A0FD42463EA120A808F0FEFB5B
:100D200020A803F098FD3FA120A808F0F7FB20A819
:100D300003F091FD41A120A808F0F0FB20A803F0EA
:100D40008AFD1C490879012803D1194A0020107036
:100D50000871B8F10A0F7FE027E1000094024042D9
:100D600020D6E1BEE0B5F7D5FBD6D0A3A10D0A0091
:100D700020C9B2B3B5A3A10D0A0000003C030020B6
:100D800020C9B2B3B5D3D0D5CFB0ADCEEF20256456
:100D9000200D0A0074382E7478743D22C7EBD7A258
:100DA000D2E2D3D0D5CFB0ADCEEF2122FFFFFF00EE
:100DB000A300002028000020C00000201F85EB5168
:100DC000B81E09400000000000806640C8000020F6
:100DD000A4000020780300207003002060B0000809
:100DE000008042420000414274312E7478743D22EA
:100DF00025642E2564205622FFFFFF00000000001E
:100E0000000028406A312E70636F3D32303234FF6B
:100E1000FFFF00006A312E76616C3D2564FFFFFF05
:100E20000000000074382E7478743D22D5FDB3A301
:100E3000D4CBD0D02122FFFFFF00000074362E74E7
:100E400078743D22D2A3BFD8C6F7C1ACBDD3B3C915
:100E5000B9A62122FFFFFF0020DA57A120A808F041
:100E60005DFB20A803F0F7FC4246AFF2580120A832
:100E700008F054FB20A803F0EEFC53A120A808F0D2
:100E80004DFB20A803F0E7FC5448017854A008F07B
:100E900035FB5748017909B901210171DFF8548107
:100EA00098ED089B51EC190B08F02EF9814608F0DB
:100EB0000DF953EC192B08F025F8B0EE4D1AF0EEB1
:100EC0006D1A53EC112B08F020F808F01DF90346B9
:100ED0004A4649A120A808F021FB20A803F0BBFC4A
:100EE000434898ED080B90ED041B51EC100B53ECAC
:100EF000112B08F07CF8B0EE4E1AF0EE6E1A53EC9F
:100F0000112B08F002F808F0FFF8024640A120A8D3
:100F100008F004FB20A803F09EFC98ED040B9FED65
:100F2000401B51EC100B53EC112B08F039F906D192
:100F30003DA120A808F0F2FA20A803F08CFC98ED5F
:100F4000040B9FED3F1B51EC100B53EC112B08F0E1
:100F500027F906D13CA120A808F0E0FA20A803F068
:100F60007AFC98ED040B9FED3E1B51EC100B53ECFB
:100F7000112B08F015F906D13BA120A808F0CEFAF4
:100F800020A803F068FC98ED040B9FED3D1B51EC8D
:100F9000100B53EC112B08F003F906D13AA120A84D
:100FA00008F0BCFA20A803F056FC6D1C0A2D7FF453
:100FB000FDA9FFF7ECB900006A312E70636F3D3672
:100FC00033343838FFFFFF0074382E7478743D22B4
:100FD000C7EBB3E4B5E72122FFFFFF00A300002029
:100FE000C3BBB5E7C1CB202564200D0A000000007B
:100FF00028000020C800002074372E7478743D2229
:1010000025642E25646D2F7322FFFFFF0000000072
:101010006A302E76616C3D2564FFFFFF0000000002
:10102000000000000000F03F74342E7478743D22FC
:10103000C1BDC2D6D7AACFF22122FFFFFF00000018
:10104000000000000000004074342E7478743D22CB
:10105000CBC4C2D6D7AACFF22122FFFFFF000000E7
:10106000000000000000084074342E7478743D22A3
:10107000D0B1D0D0D7AACFF22122FFFFFF000000CD
:10108000000000000000104074342E7478743D227B
:10109000D4ADB5D8D7AACFF22122FFFFFF000000C0
:1010A0007047FEE7FEE7FEE7FEE7704770477047D0
:1010B000704700000CB50022019200925849086860
:1010C00040F4803008604FF4A043086800F400301A
:1010D00000900198401C0190009810B90198984226
:1010E000F3D10868800302D50120009000E000924F
:1010F0000098012831D14A484030026842F08052BD
:1011000002604848026842F44042026044480830A5
:1011100002680260026842F400420260026842F41F
:10112000A0520260021F404B13600A6842F08072B6
:101130000A600A689201FCD53C4A40F205711160D0
:10114000016821F003010160016841F002010160C2
:101150000168C1F381010229FAD10CBD10B53448F0
:10116000016841F4700101602D48016841F00101FE
:1011700001602B4A00210832116002682D4B1A4091
:101180000260031D2C4A1A60026822F48022026069
:1011900023480C300160FFF78DFF25494FF00060B8
:1011A0008039086010BD70B51D4E0836306800F0FB
:1011B0000C00224B224900280FD05D1004280ED0CD
:1011C00008280ED00B6030681D4AC0F30310121DB2
:1011D000105C0A68C2400A6070BD0B60F3E70D60E6
:1011E000F1E70F4A121D1068C0F38054106800F038
:1011F0003F0034B1B5FBF0F01368C3F388135843D4
:1012000005E0B3FBF0F01368C3F38813584312688A
:10121000C2F30142521C5200B0FBF2F00860D2E768
:10122000003802400070004008544007003C024073
:1012300088ED00E0FFFFF6FE103000240024F400EB
:101240008C0000207CB50121202006F0A6FD4FF483
:101250000074009401208DF8040000228DF806200F
:1012600003228DF805208DF80700F94D69462846C0
:1012700005F0E8FB2146284605F04EFC7CBD2DE933
:10128000FC5F0121084606F088FD0121022006F0DE
:1012900084FD0121102006F080FD0121082006F0C8
:1012A0007CFD0121202006F078FD0121402006F080
:1012B00074FD0121042006F070FD4FF48070009051
:1012C00001248DF8044000258DF8065003268DF882
:1012D000056002278DF80770DFF87883694640467D
:1012E00005F0B0FBF00200908DF804408DF8065038
:1012F0008DF805608DF80770DFF85C936946484605
:1013000005F0A0FB600200908DF804408DF80650B7
:101310008DF805608DF807706946CD4805F092FBA1
:10132000C02000908DF804408DF806508DF80560BF
:101330008DF807406946C64805F084FB4FF4FC7001
:1013400000908DF804408DF806508DF805608DF8FA
:1013500007406946C14805F075FB4FF4A060009056
:101360008DF804408DF806508DF805608DF80770F3
:101370006946B74805F066FB00948DF804408DF887
:1013800006508DF805608DF80740DFF8D4A2694655
:10139000504605F057FBF82000908DF804408DF87A
:1013A00006508DF805608DF80770DFF8B8B2694611
:1013B000584605F047FBE00200908DF804408DF898
:1013C00006508DF805608DF807706946484605F0AF
:1013D00039FB302000908DF804408DF806508DF8D0
:1013E00005608DF807706946404605F02BFB4FF409
:1013F0007E4000908DF804508DF805608DF8074010
:101400006946584605F01EFB4FF4D04000908DF819
:1014100004508DF805608DF8074069468C4805F04A
:1014200011FB102000908DF804508DF805608DF8A8
:1014300007406946484605F005FB3E2000908DF8C0
:1014400004508DF805608DF807406946504605F058
:10145000F9FA4FF4104000908DF804508DF80560B3
:101460008DF8074069467A4805F0ECFABDE8FC9F24
:1014700001227D49002809D101F523714A610A61E1
:10148000CA608A604A600A60A1F5237100230128BE
:1014900009D101F523714B610A61CA608A604A6013
:1014A0000A60A1F52371022809D101F523714A616F
:1014B0000B61CA608A604A600A60A1F52371032843
:1014C00009D101F523714B610B61CA608A604A60E2
:1014D0000A60A1F52371042809D101F523714A613D
:1014E0000A61CB608A604A600A60A1F52371052811
:1014F00009D101F523714B610A61CB608A604A60B2
:101500000A60A1F52371062809D101F523714A610A
:101510000B61CB608A604A600A60A1F523710728DD
:1015200009D101F523714B610B61CB608A604A6080
:101530000A60A1F52371082809D101F523714A61D8
:101540000A61CA608B604A600A60A1F523710928AC
:1015500009D101F523714B610A61CA608B604A6051
:101560000A60A1F523710A2809D101F523714A61A6
:101570000B61CA608B604A600A60A1F523710B2879
:1015800009D101F523714B610B61CA608B604A6020
:101590000A60A1F523710C2809D101F523714A6174
:1015A0000A61CB608B604A600A60A1F523710D2847
:1015B00009D101F523714B610A61CB608B604A60F0
:1015C0000A60A1F523710E2809D101F523714A6142
:1015D0000B61CB608B604A600A60A1F523710F2814
:1015E00009D101F523714B610B61CB608B604A60BF
:1015F0000A60A1F52371102807D101F523714A6112
:101600000A61CA608A604B600A607047002801D195
:10161000164A1160164A012801D1C2F8A412154BCE
:10162000022801D1C3F8AC12032801D1C3F8B012CB
:10163000042801D1C2F89C12052801D1C2F89812E1
:10164000704710B5012817D0002800D1092010BD1F
:101650000014024000100240000002400018024046
:1016600000080240000C024000004342A002424237
:1016700000804242000040429748D0F81012D1B199
:10168000D0F81412E1B195490968F1B1D0F80C1203
:1016900001B39349D1F830220AB3D1F83C120029A2
:1016A00022D0D0F80412002923D0D0F80802002854
:1016B00024D00920CBE78BA007F020FF0020C6E74D
:1016C0008DA007F01BFF0120C1E790A007F016FFD7
:1016D0000220BCE792A007F011FF0320B7E795A016
:1016E00007F00CFF0420B2E797A007F007FF0520E2
:1016F000ADE79AA007F002FF0620A8E79CA007F03C
:10170000FDFE0720A3E770B59E4C9F4D01287DD1BB
:1017100094ED000B95ED001B51EC100B53EC112BCD
:1017200007F056FD03D895ED000B84ED000B95ED09
:10173000000B51EC100B81F0004194ED001B53ECB9
:10174000112B07F045FD07D295ED000B51EC100B66
:1017500081F00041C4E9000194ED020B95ED001BFE
:1017600051EC100B53EC112B07F032FD03D895ED23
:10177000000B84ED020B95ED000B51EC100B81F08A
:10178000004194ED021B53EC112B07F021FD07D211
:1017900095ED000B51EC100B81F00041C4E9020102
:1017A00094ED040B95ED001B51EC100B53EC112B39
:1017B00007F00EFD03D895ED000B84ED040B95EDBD
:1017C000000B51EC100B81F0004194ED041B53EC25
:1017D000112B07F0FDFC07D295ED000B51EC100B1F
:1017E00081F00041C4E9040194ED060B95ED001B66
:1017F00051EC100B53EC112B07F0EAFC03D895EDDC
:10180000000B84ED060B95ED000B00E012E051ECAF
:10181000100B81F0004194ED061B53EC112B07F0E7
:10182000D7FC07D295ED000B51EC100B81F0004175
:10183000C4E9060170BD2A49D1F838225348012A6B
:1018400009D1D1F83422012A05D1D1F82C22012A5C
:1018500001D100220270D1F83822012A07D1D1F833
:10186000342222B9D1F82C22012A00D10270D1F8F9
:101870003822012A08D1D1F83422012A04D1D1F822
:101880002C220AB902220270D1F83822012A07D18B
:10189000D1F8342222B9D1F82C220AB903220270DD
:1018A000D1F838224AB9D1F83422012A05D1D1F829
:1018B0002C22012A01D104220270D1F83822002AF8
:1018C00009D1D1F83422002A05D1D1F82C120129EE
:1018D00001D10521017070470000414210024042D1
:1018E00000804242D7F3C7B0D7F3D7AACFDECEBB32
:1018F000BFA8D7A13A0D0A00D7F3C7B0D3D2D7AA51
:10190000CFDECEBBBFA8D7A13A0D0A00D3D2C7B055
:10191000D7F3D7AACFDECEBBBFA8D7A13A0D0A0016
:10192000D3D2C7B0D3D2D7AACFDECEBBBFA8D7A160
:101930003A0D0A00D7F3BAF3D7F3D7AACFDECEBB5E
:10194000BFA8D7A13A0D0A00D7F3BAF3D3D2D7AACA
:10195000CFDECEBBBFA8D7A13A0D0A00D3D2BAF3CF
:10196000D7F3D7AACFDECEBBBFA8D7A13A0D0A00C6
:10197000D3D2BAF3D3D2D7AACFDECEBBBFA8D7A1DA
:101980003A0D0A0048040020700000208800002062
:101990002DE9F0418AB006460D460121084606F0C1
:1019A0002CFA0121102006F0F8F9DFF8E482012278
:1019B0000921404605F0BEF801220D21404605F000
:1019C000B9F801220B21404605F0B4F801220E219E
:1019D000404605F0AFF84FF4D440089002208DF84F
:1019E000240003208DF8250000248DF826400127CF
:1019F0008DF8277008A9404605F024F8ADF814507A
:101A0000ADF816400696ADF81C40A24D05A9284633
:101A100005F06CFB6021ADF80010ADF80270ADF878
:101A20000C406946284605F0EBFB6946284605F060
:101A300017FC6946284605F053FC6946284605F020
:101A4000A7FC0821284605F02BFD0821284605F0B3
:101A50002DFD0821284605F033FD0821284605F014
:101A600035FD0121284605F0A3FB0121284605F09C
:101A7000BBFB0121284605F0E6FE0AB0BDE8F08177
:101A800070B505462DED048BB0EE409AF0EE609AED
:101A9000814890ED001B53EC112B9FED808B51EC96
:101AA000180B07F0A4FA53EC192B07F02EFA07F0E5
:101AB0002BFB04469FED7B9B764E15BB002C05DA75
:101AC00000210846FFF7A2FD644203E00121002047
:101AD000FFF79CFD0A2C01DA00240EE05820604339
:101AE00007F0F4FA53EC182B07F081FA53EC192B9A
:101AF00007F064F907F008FB04462146304605F07C
:101B0000A7FC022D22D1002C05DA6442002102201C
:101B1000FFF77CFD03E001210220FFF777FD0A2C8F
:101B200001DA00240EE05820604307F0CFFA53ECAE
:101B3000182B07F05CFA53EC192B07F03FF907F06C
:101B4000E3FA04462146304605F086FC012D22D1F9
:101B5000002C05DA644200210120FFF757FD03E065
:101B600001210846FFF752FD0A2C01DA00240EE09D
:101B70005820604307F0AAFA53EC182B07F037FA05
:101B800053EC192B07F01AF907F0BEFA0446214668
:101B9000304605F05FFC032D25D1002C05DA6442A8
:101BA00000210320FFF732FD03E001210320FFF7AE
:101BB0002DFD0A2C01DA00210EE05820604307F0C9
:101BC00085FA53EC182B07F012FA53EC192B07F097
:101BD000F5F807F099FA0146BDEC048B3046BDE8F4
:101BE000704005F03BBCBDEC048B70BD2DE9F043AB
:101BF0008BB005460E460121084606F0F2F8012199
:101C0000084606F0CAF8DFF8A490012205214846EC
:101C100004F090FF202009904FF002088DF82880F2
:101C200003208DF8290000248DF82A4001278DF823
:101C30002B7009A9484604F005FFADF81860ADF80F
:101C40001A400795ADF82040BC0706A9204605F0CC
:101C50004DFA6020ADF80400ADF80670ADF81080C4
:101C600001A9204605F0CCFA0821204605F018FC11
:101C70000121204605F09CFA6908204605F0E8FBA2
:101C80000121204605F0B0FA0BB0BDE8F08300005A
:101C90000010024000000140380000200000000059
:101CA00000406F400000000000004E400000024075
:101CB00070B5012004F015FD274CD4F80C12274D07
:101CC000012902D1284605F08FFAD4F80C1231B957
:101CD0000021284605F088FA214901200860BDE866
:101CE0007040082006F0BCB970B586B001212020F4
:101CF00006F053F80826019600258DF808500320B9
:101D00008DF8090001248DF80B4001A9154804F055
:101D100099FE0121880306F070F80321052005F0E3
:101D20009DFE03968DF8105010208DF811008DF84F
:101D3000124003A806F03AF909208DF81400022099
:101D40008DF815008DF816008DF8174005A804F0E1
:101D50008CFD06B070BD00000080424200140040BF
:101D60003C0300200014024010B52DED048BB0EEB2
:101D7000419AF0EE619AF7484468002C15D1F64874
:101D800090ED000BF54853EC102B90ED000B51EC4F
:101D9000100B07F02CF941EC100B07F0EDFB51ECA8
:101DA000100B07F02DFA08EE100A012C15D1EC48A3
:101DB00090ED000BEB4853EC102B90ED000B51EC29
:101DC000100B07F014F941EC100B07F0D5FB51ECA8
:101DD000100B07F015FA08EE100AF1EE488A18EE1B
:101DE000900A07F0C9F9E04CC4E9000118EE100AA6
:101DF00007F0C2F9C4E9020118EE100A07F0BCF9B5
:101E0000C4E9040118EE900A07F0B6F9C4E9060126
:101E10009FEDD60B51EC190B53EC102B07F075F816
:101E200041EC180B203484ED008B51EC180B81F041
:101E300000410B460246C4E9020184ED048BC4E96B
:101E40000623BDEC048B10BD10B5C74880ED060B12
:101E500080ED040B80ED020B80ED000B51EC110BBB
:101E600081F00041C04C0B4620340246C4E9060113
:101E7000C4E90423C4E902230CC410BDBA4880EDB0
:101E8000000B80ED020B80ED040B80ED060B203083
:101E900080ED001B80ED021B80ED041B80ED061B16
:101EA00070472DE9F041B04DB24CB34F05F120061B
:101EB00095ED000B94ED001B51EC100B53EC112B26
:101EC00007F086F903D894ED000B85ED000B94ED37
:101ED000000B51EC100B81F0004195ED001B53EC11
:101EE000112B07F075F907D894ED000B51EC100B8E
:101EF00081F00041C5E9000195ED020B94ED001B56
:101F000051EC100B53EC112B07F062F903D894ED50
:101F1000000B85ED020B94ED000B51EC100B81F0E2
:101F2000004195ED021B53EC112B07F051F907D836
:101F300094ED000B51EC100B81F00041C5E902015A
:101F400095ED040B94ED001B51EC100B53EC112B91
:101F500007F03EF903D894ED000B85ED040B94EDEA
:101F6000000B51EC100B81F0004195ED041B53EC7C
:101F7000112B07F02DF907D894ED000B51EC100B45
:101F800081F00041C5E9040195ED060B94ED001BBD
:101F900051EC100B53EC112B07F01AF903D894ED08
:101FA000000B85ED060B94ED000B51EC100B81F04E
:101FB000004195ED061B53EC112B07F009F907D8EA
:101FC00094ED000B51EC100B81F00041C5E90601C6
:101FD00096ED000B97ED001B51EC100B53EC112B01
:101FE00007F0F6F803D897ED000B86ED000B97EDA0
:101FF000000B51EC100B81F0004196ED001B53ECEF
:10200000112B07F0E5F807D897ED000B51EC100BFA
:1020100081F00041C6E9000196ED020B97ED001B2F
:1020200051EC100B53EC112B07F0D2F803D897EDBD
:10203000000B86ED020B97ED000B51EC100B81F0BD
:10204000004196ED021B53EC112B07F0C1F807D8A5
:1020500097ED000B51EC100B81F00041C6E9020135
:1020600096ED040B97ED001B51EC100B53EC112B6C
:1020700007F0AEF803D897ED000B86ED040B97ED53
:10208000000B51EC100B81F0004196ED041B53EC5A
:10209000112B07F09DF807D897ED000B51EC100BB2
:1020A00081F00041C6E9040196ED060B97ED001B97
:1020B00051EC100B53EC112B07F08AF803D897ED75
:1020C000000B86ED060B97ED000B51EC100B81F029
:1020D000004196ED061B53EC112B07F079F807D859
:1020E00097ED000B51EC100B81F00041C6E90601A1
:1020F000BDE8F0812DE9F0472DED108BB0EE408A60
:10210000F0EE608AB0EE41AAF0EE61AA164C9FEDA7
:102110001B9B04F1200753EC192B51EC180B07F013
:102120003FF82FD184ED009B84ED029B84ED049B4E
:1021300084ED069B51EC1A0B81F000410B460246E0
:10214000C7E90001C7E90223C7E90423C7E9062359
:1021500083E20000A0000020000000200800002012
:102160001000002018000020480400206666666603
:102170006666E63F500000203800002000000000A6
:1021800000000000FC4EFD4DDFF8F4839FEDFDDB09
:102190009FEDFEFB706800287ED195ED000B53EC9F
:1021A000102B98ED000B51EC100B06F020FF41ECCA
:1021B000100B07F0E1F953EC1F2B51EC100B06F05C
:1021C0009EFE53EC182B06F0EBFF19D295ED000B99
:1021D00053EC102B98ED000B51EC100B06F007FFA1
:1021E00041EC100B07F0C8F9B0EE4F1AF0EE6F1A81
:1021F00053EC112B51EC100B06F081FE41EC180B47
:1022000095ED000B53EC102B98ED000B51EC100BDF
:1022100006F0EDFE41EC100B07F0AEF99FEDDD1B73
:1022200051EC100B53EC112B06F06CFE53EC182BF9
:1022300006F0CEFF19D295ED000B53EC102B98ED64
:10224000000B51EC100B06F0D2FE41EC100B07F026
:1022500093F9B0EE4F1AF0EE6F1A53EC112B51ECCC
:10226000100B06F04FFE41EC180BB0EE480AF0EEF2
:10227000680A07F05DFB98ED00BBB0EE409AF0EE07
:10228000609A53EC1D2B51EC1B0B06F03EFE53ECF9
:10229000192B06F0ACFE00E0A3E041EC190B9FED1A
:1022A000BF0B51EC190B53EC102B06F02EFE95EDE5
:1022B00000EB8946804653EC1E2B06F020FE41ECD5
:1022C000100B51EC1B0B53EC102B06F090FE41EC65
:1022D000100B07F051F984ED060BB0EE40CAF0EE9A
:1022E00060CA49EC108B53EC1E2B51EC100B06F01E
:1022F00065FD41EC100B51EC1B0B53EC102B06F061
:1023000076FE41EC100B07F037F984ED040BB0EECC
:1023100040BAF0EE60BA51EC1C0B81F00041C4E908
:10232000020151EC1B0B81F00041C4E90001B0EE49
:102330004C0AF0EE6C0A07F08BFAB0EE40BAF0EE01
:1023400060BA95ED000B53EC1D2B51EC100B06F011
:10235000DCFD53EC192B06F0D5FD41EC1C0B51ECC8
:102360001A0B81F000418946804653EC1C2B06F085
:10237000CCFD53EC192B06F03AFE53EC1B2B06F068
:1023800036FEC7E9060194ED040B07F061FAB0EEE2
:1023900040BAF0EE60BA95ED000B53EC1D2B51ECFA
:1023A000100B06F0B2FD53EC192B06F007FD41ECC3
:1023B000110B49EC108B53EC112B51EC100B06F068
:1023C000A4FD53EC192B06F012FE53EC1B2B06F068
:1023D0000EFEC7E9040197ED060B87ED020BC7E976
:1023E000000170686F4D704E01287CD195ED000B97
:1023F00053EC102B96ED000B51EC100B06F0F7FD93
:1024000041EC100B07F0B8F853EC1F2B51EC100BFC
:1024100006F075FD53EC182B06F0C2FE15D295EDB3
:10242000000B53EC102B96ED000B51EC100B06F04B
:10243000DEFD41EC100B07F09FF853EC1F2B51EC25
:10244000100B06F05CFD41EC180B95ED000B53EC06
:10245000102B96ED000B51EC100B06F0C8FD41EC73
:10246000100B07F089F89FED4B1B51EC100B53EC50
:10247000112B06F047FD53EC182B06F0A9FE15D2E0
:1024800095ED000B53EC102B96ED000B51EC100B5F
:1024900006F0ADFD41EC100B07F06EF853EC1F2B6E
:1024A00051EC100B06F02EFD41EC180BB0EE480A73
:1024B000F0EE680A07F03CFA96ED009BB0EE408A19
:1024C000F0EE608A53EC1D2B51EC190B06F01DFD4C
:1024D00053EC182B06F08BFD41EC180B9FED2F0BE6
:1024E00053EC102B00E0B8E051EC180B06F00DFD9A
:1024F00095ED00CB8846064653EC1C2B06F0FFFCFE
:1025000041EC100B51EC190B53EC102B06F06FFD46
:1025100041EC100B07F030F884ED060BB0EE40BA3A
:10252000F0EE60BA48EC106B53EC1C2B51EC100B26
:1025300006F044FC41EC100B51EC190B53EC102B42
:1025400006F055FD41EC100B07F016F884ED040B76
:10255000B0EE409AF0EE609A51EC1B0B81F0004116
:10256000C4E9020151EC190B81F00041C4E90001FA
:10257000B0EE4B0A1AE00000A0000020000000208E
:1025800008000020000000000000E03FEC51B81EF1
:1025900085EBA13FEC51B81E85EBA1BF0000000008
:1025A000000000401000002018000020F0EE6B0A30
:1025B00007F04EF9B0EE409AF0EE609A95ED000B00
:1025C00053EC1D2B51EC100B06F09FFC53EC182B19
:1025D00006F098FC41EC1B0B51EC1A0B81F000410A
:1025E0008846064653EC1B2B06F08FFC53EC182B49
:1025F00006F0FDFC53EC192B06F0F9FCC7E90601C7
:1026000094ED040B07F024F9B0EE409AF0EE609AD6
:1026100095ED000B53EC1D2B51EC100B06F075FCE7
:1026200053EC182B06F0CAFB41EC100B48EC116B75
:1026300053EC102B51EC110B06F067FC53EC182BEC
:1026400006F0D5FC53EC192B06F0D1FCC7E90401C8
:1026500097ED060B87ED020B03C7BDEC108BBDE8B1
:10266000F0471EE42DE9F0472DED108BB0EE408AC7
:10267000F0EE608AB0EE419AF0EE619A9FEDFDAB0C
:10268000FE4F07F1200853EC1A2B51EC180B06F003
:1026900087FD10D187ED00AB87ED02AB87ED04AB72
:1026A00087ED06AB88ED009B88ED029B88ED049BCF
:1026B00088ED069B48E2F24EF24CF34D1FED4FDBE6
:1026C0001FED4EFB706800287ED194ED000B53EC9B
:1026D000102B95ED000B51EC100B06F088FC41EC33
:1026E000100B06F049FF53EC1F2B51EC100B06F0BA
:1026F00006FC53EC182B06F053FD19D294ED000B99
:1027000053EC102B95ED000B51EC100B06F06FFC09
:1027100041EC100B06F030FFB0EE4F1AF0EE6F1ADE
:1027200053EC112B51EC100B06F0E9FB41EC180BAC
:1027300094ED000B53EC102B95ED000B51EC100BAE
:1027400006F055FC41EC100B06F016FF1FED6F1B59
:1027500051EC100B53EC112B06F0D4FB53EC182B5F
:1027600006F036FD19D294ED000B53EC102B95EDCD
:10277000000B51EC100B06F03AFC41EC100B06F08C
:10278000FBFEB0EE4F1AF0EE6F1A53EC112B51EC2A
:10279000100B06F0B7FB41EC180BB0EE480AF0EE58
:1027A000680A07F0C5F895ED00BBB0EE40AAF0EE60
:1027B00060AA53EC1D2B51EC1B0B06F0A6FB53EC4F
:1027C0001A2B06F014FC00E095E041EC1A0B1FED0B
:1027D0008D0B51EC1A0B53EC102B06F096FB94ED7D
:1027E00000EB8946054653EC1E2B06F088FB41ECB6
:1027F000100B51EC1B0B53EC102B06F0F8FB41ECCB
:10280000100B06F0B9FE87ED000BB0EE40CAF0EEFB
:1028100060CA49EC105B53EC1E2B51EC100B06F018
:10282000CDFA41EC100B51EC1B0B53EC102B06F0C6
:10283000DEFB41EC100B06F09FFE87ED020BB0EEC5
:1028400040BAF0EE60BA51EC1C0B81F00041C7E9D0
:10285000040151EC1B0B81F00041C7E90601B0EE09
:102860004C0AF0EE6C0A06F0F3FFB0EE40BAF0EE60
:1028700060BA94ED000B53EC1D2B51EC100B06F0DD
:1028800044FB53EC1A2B06F03DFB53EC192B06F0DE
:102890003CFB53EC1A2B06F0AAFB53EC1B2B06F067
:1028A000A6FBC8E9000197ED020B06F0D1FFB0EEE0
:1028B00040BAF0EE60BA94ED000B53EC1D2B51ECD6
:1028C000100B06F022FB53EC1A2B06F077FA53ECB0
:1028D000192B06F01AFB53EC1A2B06F088FB53EC6D
:1028E0001B2B06F084FBC8E9020198ED000B88ED74
:1028F000040BC8E906017068644C654D01287CD161
:1029000094ED000B53EC102B95ED000B51EC100BDC
:1029100006F06DFB41EC100B06F02EFE53EC1F2B66
:1029200051EC100B06F0EBFA53EC182B06F038FCC8
:1029300015D294ED000B53EC102B95ED000B51ECE0
:10294000100B06F054FB41EC100B06F015FE53EC97
:102950001F2B51EC100B06F0D2FA41EC180B94ED42
:10296000000B53EC102B95ED000B51EC100B06F007
:102970003EFB41EC100B06F0FFFD1FEDFA1B51EC86
:10298000100B53EC112B06F0BDFA53EC182B06F08C
:102990001FFC15D294ED000B53EC102B95ED000BA2
:1029A00051EC100B06F023FB41EC100B06F0E4FD9C
:1029B00053EC1F2B51EC100B06F0A4FA41EC180B52
:1029C000B0EE480AF0EE680A06F0B2FF95ED00ABF3
:1029D000B0EE408AF0EE608A53EC1D2B51EC1A0BDE
:1029E00006F093FA53EC182B06F001FB41EC180BA0
:1029F0009FED280B53EC102B00E0A5E051EC180BD9
:102A000006F083FA94ED00CB0E46054653EC1C2BE2
:102A100006F075FA41EC100B51EC1A0B53EC102B2D
:102A200006F0E5FA41EC100B06F0A6FD87ED000B71
:102A3000B0EE40BAF0EE60BA46EC105B53EC1C2BE3
:102A400051EC100B06F0BAF941EC100B51EC1A0BDB
:102A500053EC102B06F0CBFA41EC100B06F08CFD7A
:102A600087ED020BB0EE40AAF0EE60AA51EC1B0B12
:102A700014E00000000000000000000048040020F6
:102A8000A00000200000002008000020100000200E
:102A900018000020000000000000004081F000410C
:102AA000C7E9040151EC1A0B81F00041C7E90601A6
:102AB000B0EE4B0AF0EE6B0A06F0CAFEB0EE40AA8A
:102AC000F0EE60AA94ED000B53EC1D2B51EC100BB3
:102AD00006F01BFA53EC182B06F014FA53EC192BE2
:102AE00006F013FA53EC182B06F081FA53EC1A2B6C
:102AF00006F07DFAC8E9000197ED020B06F0A8FE8A
:102B0000B0EE40AAF0EE60AA94ED000B53EC1D2B42
:102B100051EC100B06F0F9F953EC182B06F04EF9B6
:102B200053EC192B06F0F1F953EC182B06F05FFA71
:102B300053EC1A2B06F05BFAC8E9020198ED000B82
:102B400088ED040BC8E90601BDEC108BBDE8F04729
:102B5000FFF7A7B92DE9F05F2DED108BB0EE408A9D
:102B6000F0EE608AB0EE41AAF0EE61AAFE4E1FEDD3
:102B70003FCB06F1200953EC1C2B51EC180B06F04F
:102B80000FFB16D186ED00CB86ED02CB86ED04CB94
:102B900086ED06CB51EC1A0B81F000410B46024644
:102BA000C9E90001C9E90223C9E90423C9E90623E7
:102BB000CAE2EE4DEE4FEF4C686800287ED11FED63
:102BC0004BEB97ED000B53EC1E2B51EC100B06F06A
:102BD0009CF994ED001B53EC112B06F008FA41EC24
:102BE000100B06F0C9FC9FEDE49B51EC100B53EC6D
:102BF000192B06F084F953EC182B06F0D1FA19D2F0
:102C000097ED000B53EC1E2B51EC100B06F07DF9E9
:102C100094ED001B53EC112B06F0E9F941EC100B7D
:102C200006F0AAFC53EC192B51EC100B06F067F9D7
:102C300041EC180B97ED000B53EC1E2B51EC100BD5
:102C400006F063F994ED001B53EC112B06F0CFF95D
:102C500041EC100B06F090FC9FEDC91B51EC100BE2
:102C600053EC112B06F04EF953EC182B06F0B0FA8A
:102C700019D297ED000B53EC1E2B51EC100B06F004
:102C800044F994ED001B53EC112B06F0B0F941EC24
:102C9000100B06F071FC53EC192B51EC100B06F0E5
:102CA00031F941EC180BB0EE480AF0EE680A06F074
:102CB0003FFE53EC102B97ED00BB00E0D5E051EC4C
:102CC0001B0B06F094F941EC190B51EC1A0B53EC69
:102CD000192B06F08CF941EC1D0B1FED920B51ECFA
:102CE000190B53EC102B06F010F994ED00FB8B46FA
:102CF000074653EC1F2B06F002F941EC1E0B1FEDAB
:102D00009B0B51EC1B0B53EC102B06F0FEF88A4684
:102D1000804653EC1E2B06F06AF941EC100B06F0CE
:102D20002BFC86ED060BB0EE40BAF0EE60BA4BEC31
:102D3000107B53EC1F2B51EC100B06F03FF841ECCD
:102D4000110B4AEC108B53EC112B51EC100B06F0CD
:102D50004EF941EC100B06F00FFC86ED040B86EDEE
:102D600002CB86ED00CBB0EE4B0AF0EE6B0A06F01C
:102D70006FFDB0EE40BAF0EE60BA9FED83EB94EDDC
:102D8000000B53EC1E2B51EC100B06F0BEF853EC6D
:102D9000192B06F0B7F841EC1F0B51EC1A0B81F020
:102DA00000418A46074653EC1F2B06F0AEF853EC61
:102DB000192B06F01CF953EC1B2B06F018F9C9E986
:102DC000060196ED040B06F043FDB0EE40BAF0EEBE
:102DD00060BA94ED000B53EC1E2B51EC100B06F077
:102DE00094F88846044653EC192B05F0E7FF41ECB4
:102DF000110B4AEC107B53EC112B51EC100B06F02D
:102E000084F853EC192B06F0F2F853EC1B2B06F068
:102E1000EEF8C9E9040148EC104B53EC192B51ECC6
:102E2000100B06F06FF841EC1B0B51EC1D0B81F001
:102E300000418A46074653EC1B2B06F066F8C9E9A9
:102E4000020148EC104B53EC192B51EC100B05F020
:102E5000B5FF41EC110B4AEC107B53EC112B51ECFC
:102E6000100B06F052F8C9E900016868484D494C5A
:102E7000012878D11FEDF9EB95ED000B53EC1E2BDB
:102E800051EC100B06F041F894ED001B53EC112BA4
:102E900006F0ADF841EC100B06F06EFB9FED369B93
:102EA00051EC100B53EC192B06F029F853EC182BAE
:102EB00006F076F919D295ED000B53EC1E2B51EC70
:102EC000100B06F022F894ED001B53EC112B06F0CA
:102ED0008EF841EC100B06F04FFB53EC192B51EC24
:102EE000100B06F00CF841EC180B95ED000B53ECB1
:102EF0001E2B51EC100B06F008F894ED001B53EC60
:102F0000112B06F074F841EC100B06F035FB9FED29
:102F10001C1B51EC100B53EC112B05F0F3FF53EC81
:102F2000182B06F055F919D295ED000B53EC1E2B1A
:102F300051EC100B05F0E9FF94ED001B53EC112B45
:102F400006F055F841EC100B06F016FB53EC192B6C
:102F500051EC100B05F0D6FF41EC180BB0EE480A0F
:102F6000F0EE680A18E0EFE048040020A00000201E
:102F70000800002000000020EC51B81E85EBA13FA6
:102F8000EC51B81E85EBA1BF000000000000E03F3F
:102F9000180000201000002006F0CAFC95ED00FB90
:102FA00053EC102B51EC1F0B06F021F841EC180BE1
:102FB00051EC1A0B53EC182B06F019F841EC1B0BD3
:102FC00053EC1E2B51EC180B05F09FFF94ED009B6A
:102FD0008A46054653EC192B05F091FF41EC1D0B79
:102FE00053EC1E2B51EC1F0B05F08FFF8846074654
:102FF00053EC1D2B05F0FBFF41EC100B06F0BCFA67
:1030000086ED060BB0EE40DAF0EE60DA4AEC115BCA
:1030100053EC192B51EC110B05F0D0FE41EC100BC9
:1030200048EC117B53EC102B51EC110B05F0DFFF3A
:1030300041EC100B06F0A0FA86ED040B86ED02CBF6
:1030400086ED00CBB0EE4D0AF0EE6D0A06F000FC06
:10305000B0EE409AF0EE609A1FED35DB94ED000B78
:1030600053EC1D2B51EC100B05F04FFF53EC182BBC
:1030700005F048FF41EC1C0B51EC1A0B81F00041AC
:103080000F46054653EC1C2B05F03FFF53EC182B65
:1030900005F0ADFF53EC192B05F0A9FFC9E90601B6
:1030A00096ED040B06F0D4FBB0EE409AF0EE609A79
:1030B00094ED000B53EC1D2B51EC100B05F025FF8C
:1030C0000E46044653EC182B05F078FE41EC100B2D
:1030D00047EC115B53EC102B51EC110B05F015FF75
:1030E00053EC182B05F083FF53EC192B05F07FFFF1
:1030F000C9E9040146EC114B53EC182B51EC110BB0
:1031000005F000FF41EC190B51EC1B0B81F0004165
:103110000F46054653EC192B05F0F7FEC9E90201ED
:1031200046EC104B53EC182B51EC100B05F046FEFF
:1031300041EC100B47EC115B53EC102B51EC110BD5
:1031400005F0E3FEC9E90001BDEC108BBDE8F05FBE
:10315000FEF7A7BE2DE9F05F2DED108BB0EE409A83
:10316000F0EE609AB0EE418AF0EE618A9FEDFECB00
:10317000DFF8FC9309F1200753EC1C2B51EC190BE1
:1031800006F00EF810D189ED00CB89ED02CB89ED68
:1031900004CB89ED06CB87ED008B87ED028B87EDA5
:1031A000048B87ED068B97E2F24EF34DF34C70687B
:1031B00000287CD19FEDF2EB95ED000B53EC1E2B1C
:1031C00051EC100B05F0A1FE94ED001B53EC112BFC
:1031D00005F00DFF41EC100B06F0CEF91FED9AAB98
:1031E00051EC100B53EC1A2B05F089FE53EC192B04
:1031F00005F0D6FF19D295ED000B53EC1E2B51ECC8
:10320000100B05F082FE94ED001B53EC112B05F022
:10321000EEFE41EC100B06F0AFF953EC1A2B51EC1B
:10322000100B05F06CFE41EC190B95ED000B53EC07
:103230001E2B51EC100B05F068FE94ED001B53ECB7
:10324000112B05F0D4FE41EC100B06F095F91FEDA3
:10325000B41B51EC100B53EC112B05F053FE53EC47
:10326000192B05F0B5FF19D295ED000B53EC1E2B71
:1032700051EC100B05F049FE94ED001B53EC112BA3
:1032800005F0B5FE41EC100B06F076F953EC1A2B65
:1032900051EC100B05F036FE41EC190BB0EE490A6B
:1032A000F0EE690A06F044FB53EC102B00E0BBE0A3
:1032B00095ED00DB51EC1D0B05F099FE41EC1A0B6E
:1032C00051EC180B53EC1A2B05F091FE41EC1B0B43
:1032D0009FEDAB0B51EC1A0B53EC102B05F015FEC8
:1032E00094ED00FB8B46054653EC1F2B05F007FEC3
:1032F00041EC1E0B9FEDA20B51EC1D0B53EC102B60
:1033000005F003FE8A46804653EC1E2B05F06FFE47
:1033100041EC100B06F030F989ED000BB0EE40DA0D
:10332000F0EE60DA4BEC105B53EC1F2B51EC100B02
:1033300005F044FD41EC110B4AEC108B53EC112BC2
:1033400051EC100B05F053FE41EC100B06F014F994
:1033500089ED020B89ED04CB89ED06CBB0EE4D0A69
:10336000F0EE6D0A06F074FAB0EE40DAF0EE60DAD4
:103370001FEDFBEB94ED000B53EC1E2B51EC100BEF
:1033800005F0C3FD53EC1A2B05F0BCFD53EC182BD4
:1033900005F0BBFD53EC1A2B05F029FE53EC1D2B59
:1033A00005F025FEC7E9000199ED020B06F050FA81
:1033B000B0EE40DAF0EE60DA94ED000B53EC1E2B29
:1033C00051EC100B05F0A1FD0D46044653EC1A2BF1
:1033D00005F0F4FC53EC182B05F097FD53EC1A2B79
:1033E00005F005FE53EC1D2B05F001FEC7E90201B7
:1033F00045EC104B53EC1A2B51EC100B05F082FDF1
:1034000053EC1B2B05F081FDC7E9040145EC104B83
:1034100053EC1A2B51EC100B05F0D0FC53EC1B2B8A
:1034200005F073FDC7E906017068574D574C012838
:103430007ED19FED53EB95ED000B53EC1E2B51EC21
:10344000100B05F062FD94ED001B53EC112B05F001
:10345000CEFD41EC100B06F08FF89FED4DAB51EC1B
:10346000100B53EC1A2B05F04AFD53EC192B05F009
:1034700097FE19D295ED000B53EC1E2B51EC100B5F
:1034800005F043FD94ED001B53EC112B05F0AFFD4F
:1034900041EC100B06F070F853EC1A2B51EC100BAA
:1034A00005F02DFD41EC190B95ED000B53EC1E2B97
:1034B00051EC100B05F029FD94ED001B53EC112B82
:1034C00005F095FD41EC100B06F056F89FED321B10
:1034D00051EC100B53EC112B05F014FD53EC192B90
:1034E00005F076FE19D295ED000B53EC1E2B51EC36
:1034F000100B05F00AFD94ED001B53EC112B05F0A9
:1035000076FD41EC100B06F037F853EC1A2B51EC1A
:10351000100B05F0F7FC41EC190BB0EE490AF0EE88
:10352000690A06F005FA53EC102B95ED00FB00E05C
:10353000D2E051EC1F0B05F05AFD41EC190B51EC98
:10354000180B53EC192B05F052FD41EC1A0B53EC00
:103550001E2B51EC190B05F0D8FC94ED00BB8A46EC
:10356000054653EC1B2B1BE0000000000000000090
:1035700048040020A00000200800002000000020D7
:103580000000000000000040180000201000002093
:10359000EC51B81E85EBA13FEC51B81E85EBA1BFE5
:1035A00005F0ADFC41EC1D0B53EC1E2B51EC1F0B39
:1035B00005F0ABFC8846064653EC1D2B05F017FDC5
:1035C00041EC100B05F0D8FF89ED000BB0EE40DAAE
:1035D000F0EE60DA4AEC115B53EC1B2B51EC110B53
:1035E00005F0ECFB41EC100B48EC116B53EC102B8D
:1035F00051EC110B05F0FBFC41EC100B05F0BCFF8E
:1036000089ED020B89ED04CB89ED06CBB0EE4D0AB6
:10361000F0EE6D0A06F01CF9B0EE40BAF0EE60BABA
:103620009FEDFECB94ED000B53EC1C2B51EC100BDB
:1036300005F06BFC53EC192B05F064FC53EC182BD4
:1036400005F063FC53EC192B05F0D1FC53EC1B2B5C
:1036500005F0CDFCC7E9000199ED020B06F0F8F882
:10366000B0EE40BAF0EE60BA94ED000B53EC1C2BB8
:1036700051EC100B05F049FC0D46044653EC192B98
:1036800005F09CFB53EC182B05F03FFC53EC192B79
:1036900005F0ADFC53EC1B2B05F0A9FCC7E90201BA
:1036A00045EC114B53EC192B51EC110B05F02AFC96
:1036B00053EC1A2B05F029FCC7E9040145EC104B2B
:1036C00053EC192B51EC100B05F078FB53EC1A2B33
:1036D00005F01BFCC7E90601BDEC108BBDE8F05FEF
:1036E000FEF7DFBB2DE9F0412DED088BCD4F1FED2F
:1036F000628B9FEDCD9B9FEDCEBBDFF83C8308F145
:10370000280653EC182B96ED000B51EC100B05F02E
:1037100047FD09D0C94853EC182B90ED060B51EC2E
:10372000100B05F03DFD08D187ED008B87ED028B76
:1037300087ED048B87ED068B08E196ED060B51ECC7
:10374000100B05F05DFD054696ED080B51EC100BD6
:1037500005F056FD044696ED040B53EC192B51EC85
:10376000100B05F01DFD31D196ED020B53EC182B1B
:1037700051EC100B05F014FD0FD1204605F0FCFCB8
:1037800041EC1A0B284605F0F7FC41EC100BB0EEAB
:103790004A1AF0EE6A1AFFF7DDFC96ED020B53ECC5
:1037A000192B51EC100B05F0FBFC0FD1204605F056
:1037B000E3FC41EC1A0B284605F0DEFC41EC100B53
:1037C000B0EE4A1AF0EE6A1AFFF7C4F996ED040B50
:1037D0001FED951B51EC100B53EC112B05F0E0FC89
:1037E00031D196ED020B53EC182B51EC100B05F078
:1037F000D7FC0FD1204605F0BFFC41EC1A0B284640
:1038000005F0BAFC41EC100BB0EE4A1AF0EE6A1A61
:10381000FEF728FF96ED020B53EC192B51EC100B21
:1038200005F0BEFC0FD1204605F0A6FC41EC1A0BBA
:10383000284605F0A1FC41EC100BB0EE4A1AF0EE60
:103840006A1AFEF757FC96ED040B9FED7D1B51ECB9
:10385000100B53EC112B05F0A3FC31D196ED020BAC
:1038600053EC182B51EC100B05F09AFC0FD12046AD
:1038700005F082FC41EC1A0B284605F07DFC41EC7A
:10388000100BB0EE4A1AF0EE6A1AFEF7F7FA96ED50
:10389000020B53EC192B51EC100B05F081FC0FD1EE
:1038A000204605F069FC41EC1A0B284605F064FC43
:1038B00041EC100BB0EE4A1AF0EE6A1AFEF7C4FAA9
:1038C00096ED040B53EC1B2B51EC100B05F068FC30
:1038D00034D1D8F8040088BB96ED020B53EC182BBA
:1038E00051EC100B05F05CFC0FD1204605F044FCB8
:1038F00041EC180B284605F03FFC41EC100BB0EEF4
:10390000481AF0EE681AFEF72FFA96ED020B53EC08
:10391000192B51EC100B05F043FC0FD1204605F09C
:103920002BFC41EC180B284605F026FC41EC100B53
:10393000B0EE481AF0EE681AFEF716FA96ED040B90
:1039400053EC1B2B51EC100B05F02AFCD8F80400AB
:10395000012829D197ED048B97ED000B87ED040B1F
:1039600097ED020B51EC100B81F00041C7E900010B
:1039700097ED060B87ED020B51EC180B81F000411F
:10398000C7E906012748203890ED040B90ED001B95
:1039900080ED041B90ED021B80ED001B90ED061BDB
:1039A00080ED021B80ED060BBDEC088BBDE8F081BD
:1039B0002DE9F05F2DED0A8B1F4C9FED1B9B2834EA
:1039C00084ED009BDFF8808040F2DC559FED1F8B7B
:1039D000D8F80C000127DFF860B0A84215DADBF850
:1039E000080090B994ED080B53EC182B51EC100B18
:1039F00005F0D6FB09D1CBF80870B0EE48AAF0EE7E
:103A000068AA84ED02AB8BF80070D8F80C00002691
:103A1000A84230DDDBF8080001281BE000000000B0
:103A20000000E03F68040020000000000000F03FBC
:103A30000000000000001040A00000200003002053
:103A40000000000000000840AC040020000000005E
:103A5000000000000FD194ED080B53EC182B51EC33
:103A6000100B05F09DFB06D1CBF8086084ED029B9E
:103A700002208BF80000D8F81000DFF80494B0F5AD
:103A8000C86F32DB05F022FB9FEDFE1B53EC112BC0
:103A900005F035FA9FEDFD1B53EC112B05F0A7FA4D
:103AA00099ED00AB53EC1A2B05F02FFA41EC100BFB
:103AB00084ED080B53EC1A2B51EC100B05F088FB2E
:103AC00003D899ED000B84ED080B94ED080B53EC33
:103AD000182B51EC100B05F063FB08D8B0EE48AA88
:103AE000F0EE68AA84ED08AB01E084ED088B9FED51
:103AF000E9BB9FEDEAABD8F80800A84232DADBF860
:103B0000100078BB94ED080B53EC182B51EC100B04
:103B100005F046FB26D1CBF8107094ED040B53EC66
:103B2000192B51EC100B05F049F941EC100B84ED09
:103B3000040B53EC1B2B51EC100B05F031FB05D1A2
:103B4000B0EE49CAF0EE69CA84ED04CB94ED040BE3
:103B500053EC1A2B51EC100B05F030F905F0F3FA89
:103B60008BF80000D8F80800A84233DDDBF810001D
:103B700001282FD194ED080B53EC182B51EC100BAE
:103B800005F00EFB26D1CBF8106094ED040B53EC3E
:103B9000192B51EC100B05F011F941EC100B84EDD1
:103BA000040B53EC1B2B51EC100B05F0F9FA05D16B
:103BB000B0EE49CAF0EE69CA84ED04CB94ED040B73
:103BC00053EC1A2B51EC100B05F0F8F805F0BBFA8A
:103BD0008BF80000D8F80400A8421ADDDBF80400D6
:103BE000B8B994ED080B53EC182B51EC100B05F001
:103BF000D7FA0ED1B0EE48BAF0EE68BA84ED06BB43
:103C0000CBF804709FEDA70B8BED080B07208BF80A
:103C10000000D8F8041040F2DC50814219DADBF8D9
:103C20000400012815D194ED080B53EC182B51EC2E
:103C3000100B05F0B5FA0CD1B0EE48BAF0EE68BA48
:103C400084ED06BBCBF804608BED08BB0D208BF830
:103C500000009FED96CBDFF85C92DFF85CA29FED51
:103C600097BB984DDBF80400F0BB94ED040B53ECCC
:103C7000192B51EC100B05F093FA19D199ED000BAB
:103C800053EC1A2B51EC100B05F03FF99AED001B89
:103C900053EC112B05F0ABF941EC100B05F06CFC6B
:103CA00053EC1B2B51EC100B05F029F9C5E9000171
:103CB00094ED040B53EC1A2B51EC100B05F070FA39
:103CC00017D19AED000B53EC102B99ED000B51EC32
:103CD000100B05F08CF941EC100B05F04DFC53EC8A
:103CE0001B2B51EC100B00E01FE005F008F9C5E9B3
:103CF000000194ED040BB0EE491AF0EE691A53EC92
:103D0000112B51EC100B05F04BFA0ED094ED040B77
:103D1000B0EE4A1AF0EE6A1A53EC112B51EC100B6C
:103D200005F03EFA01D085ED00CBDBF80400012858
:103D300055D194ED040B53EC192B51EC100B05F0FD
:103D40002FFA19D19AED000B53EC1A2B51EC100BF2
:103D500005F0DBF899ED001B53EC112B05F047F94A
:103D600041EC100B05F008FC53EC1B2B51EC100B35
:103D700005F0C5F8C5E9000194ED040B53EC1A2BCE
:103D800051EC100B05F00CFA15D199ED000B53EC2A
:103D9000102B9AED000B51EC100B05F028F941ECBB
:103DA000100B05F0E9FB53EC1B2B51EC100B05F04D
:103DB000A6F8C5E9000194ED040B53EC192B51EC66
:103DC000100B05F0EDF90AD094ED040B53EC1A2B0F
:103DD00051EC100B05F0E4F901D085ED00CBDFF8D4
:103DE000E8A09AF80000012849D1D8F8140040F260
:103DF0004651DFF8D89088421ADC94ED060B99ED15
:103E0000001B51EC100B53EC112B04F0D7FF41ECCD
:103E1000100B84ED060B95ED001B51EC100B53ECD1
:103E2000112B05F0D5F903D295ED000B84ED060BAF
:103E3000D8F8140040F2A461884220DD94ED060B0E
:103E400099ED001B51EC100B53EC112B05F057F8BA
:103E500041EC190B84ED069B95ED000B51EC100B1A
:103E600081F0004153EC192B05F0B2F907D295ED22
:103E7000000B51EC100B81F00041C4E9060127E072
:103E80002000002000000000000099400000000019
:103E90000000794000000000000014400000000015
:103EA000000000407A008BFCFA21F93F5E878244D3
:103EB0001857F63F0800002000000020EC51B81E03
:103EC00085EBA13F48000020780000208000002002
:103ED0009AF80000F0BBD8F8140005F0F7F89FED51
:103EE000AE1B53EC112B05F00AF89FEDAD1B53EC04
:103EF000112B05F07CF895ED009B53EC192B05F088
:103F000004F841EC100B84ED060B53EC192B51EC2B
:103F1000100B05F05DF903D295ED000B84ED060B57
:103F200095ED000B51EC100B81F0004194ED061B58
:103F300053EC112B05F04CF907D295ED000B51EC29
:103F4000100B81F00041C4E90601D8F81400A0F27A
:103F5000465000E004E0B0F5917F01D884ED068B77
:103F6000DBF80C0005F0B2F894ED021B53EC112BBA
:103F700005F016F90BD084ED068B84ED088B94EDDB
:103F8000020B51EC100B05F0BFF8CBF80C00DBF87E
:103F90001C0005F09BF894ED041B53EC112B05F06D
:103FA000FFF80BD084ED068B84ED088B94ED040BA9
:103FB00051EC100B05F0A8F8CBF81C00D8F8001055
:103FC00040F2DC50814201DBCBF818700BDCDBF8EF
:103FD0001800012807D1DBF8140050B10020CBF8FD
:103FE0001400CBF81860DBF814106F48002903D0D8
:103FF00004E04FF00100F2E7C0F89C6201D0C0F885
:104000009C729BF800009BF8011088420AD19BF833
:104010000210282906D2FDF72BFA9BF80200401C5B
:104020008BF802009BF800009BF80110884206D034
:104030008BF802608BF801000020FDF719FA9BF85D
:10404000020028280FD39BF8030028B1BDEC0A8B8F
:10405000BDE8F05FFDF70CBABDEC0A8B0020BDE8AF
:10406000F05FFDF705BABDEC0A8BBDE8F09F2DE9C6
:10407000F0412DED088BFFF79BFC4C4D4C4E287802
:104080009FED4CAB06F12804012856D1002070604A
:1040900084ED00AB687805F02AF8C4E9020184EDEC
:1040A00004ABE87805F023F841EC190BA87805F08B
:1040B0001EF89FED428B53EC182B04F026FF53ECB7
:1040C000192B04F07BFE9FED3FBB53EC1B2B04F040
:1040D0008EFFC4E908012F79AFB9A87905F007F878
:1040E00041EC190B687905F002F853EC182B04F039
:1040F0000CFF53EC192B04F061FE53EC1B2B04F066
:1041000076FFC4E90601012F17D1A87904F0EFFF6B
:1041100041EC190B687904F0EAFF53EC182B04F01A
:10412000F4FE53EC192B04F049FE9FED281B53ECD1
:10413000112B04F05CFFC4E90601FFF7D3FA254810
:1041400040F214510069884223DA70689FED228B97
:10415000234D9FED249B00281BD194ED020B9FED76
:10416000231B51EC100B53EC112B05F019F803D164
:1041700085ED048B85ED069B94ED020B53EC1A2B19
:1041800051EC100B05F00CF803D185ED009B85ED8B
:10419000028B09E4704700000000000000709740A7
:1041A0000000000000407FC0008041428C060020DB
:1041B000A0000020000000000000F03F0000000010
:1041C00000E06F400000000000408F400000000051
:1041D00000408FC0AC0400207586E44A1857D6BF53
:1041E000480400207586E44A1857D63F00000000B6
:1041F00000000000F0B597B00121102003F0FDFD94
:104200000121084603F0C9FDC44F07220A213846A0
:1042100002F090FC03268DF8556002218DF85410B1
:1042200000248DF857404D02149514A9384602F029
:1042300009FC0121880503F0B0FDB94F384603F0B1
:1042400017FF68040190B7480290B74803900494A0
:104250002320059006940795089409940A94A801D0
:104260000B900C940D960E940F9401A9384603F010
:104270008AFF0121384603F0BFFFAA4D01222D1FFE
:104280004021284602F00EFEADF84440ADF846400D
:10429000ADF84840ADF84C400420ADF84A004FF46A
:1042A000E130109010A9284602F0DAFC25208DF8A4
:1042B00058008DF859408DF85A4001208DF85B0068
:1042C00016A802F0D2FA002240F22661284602F037
:1042D000F3FD002240F22551284602F0EDFD0022B8
:1042E00040F22771284602F0E7FD012240F2244106
:1042F000284602F0E1FD0121284602F02AFD17B010
:10430000F0BD70B506460D46854C4FF02051303457
:10431000204603F0E0FF201D056081483C30066028
:10432000206840F00100206070BD10B57C4C7F49D2
:10433000204603F0D0FF0021204603F05DFF23213B
:10434000221D11602046BDE81040012103F054BF3A
:104350002DE9F041734F40F224483F1F4146384653
:1043600002F0D0FD6E4C303400287BD0384602F08D
:1043700020FD6B48001D00686D4DC0F12300A87042
:104380004FF02051204603F0A6FF01262E7004F0C6
:10439000C1FC654A51780C460223D05C44405B1C4A
:1043A000222BFADB10780F2857D192F82200A04276
:1043B00053D15D4B12F8020F243340EA01201860FC
:1043C0009078517840EA012058601079D17840EA1D
:1043D000012098609079517940EA0120D860107AE4
:1043E000D17940EA01201861907A517A40EA01209F
:1043F0005861107BD17A40EA01209861907B517B13
:1044000040EA0120D861107CD17B40EA012018628B
:10441000907C517C40EA01205862107DD17C40EABA
:1044200001209862907D517D40EA0120D862107E83
:10443000D17D40EA01201863907E517E40EA012040
:104440005863107FD17E40EA01209863907F517FAE
:1044500040EA0120D863D07FA880A988002011B14C
:10446000687001E009E06E702870FFF75EFF41465A
:104470003846BDE8F04102F065BD40F226652946A8
:10448000384602F03FFD002807D02946384602F0A2
:1044900059FD206820F001002060BDE8F08170B572
:1044A0001F4C244D30342946204603F03EFF00289F
:1044B00010D02946204603F00EFF0021204603F0CD
:1044C0009BFEBDE870401748012240F22661001FA4
:1044D00002F0F2BC70BD70B50022134B6433A3F13F
:1044E00040040DE0002154F8215053F82160354478
:1044F00043F82150491CC9B21029F4D3521CD2B23E
:104500008242EFD3002153F8212092FBF0F243F8CE
:104510002120491CC9B21029F5D370BD000002400A
:10452000886402400410014088040020408F00206D
:10453000F80000200080002870B5FF22FF23084DFE
:1045400005F5807605E010F8014B54402A5D5A408D
:10455000335D491E4C1CF6D143EA022070BD0000B9
:10456000FE0000202DE9F04387B0804601210420A1
:1045700003F013FC0121082003F00FFC01210805C2
:1045800003F02FFCDFF8F89208220C21484602F0D5
:10459000D1FABC4F08220221384602F0CBFAB814F7
:1045A000059002258DF818508DF8195000248DF8CB
:1045B0001A4001268DF81B6005A9484602F042FA10
:1045C000042005908DF818508DF819508DF81A4078
:1045D0008DF81B6005A9384602F034FACDF8048046
:1045E000ADF80840ADF80A40ADF80C40ADF8104009
:1045F0000C20ADF80E00A44D01A9284602F030FBB6
:104600000121284602F0A5FB012240F2255128464F
:1046100002F052FC35208DF800008DF801408DF835
:1046200002608DF80360684602F01FF907B0BDE82C
:10463000F083F8B5944D40F225542146284602F007
:1046400061FC18B1284602F0B4FBC6B221462846E8
:1046500002F054FC8D4900250124087818B9FF2E7A
:1046600001D10C704D700878894F012807D1487826
:104670003E54401C4870FE2E01D10220087008787C
:1046800002284AD10D70F8780090BB787A78397892
:1046900080A004F033FF7878012817D1B978824AD6
:1046A000824B834E012904D1C2F8AC52C3F88C521C
:1046B0003470022904D1C2F8AC42C3F88C42347081
:1046C00021B9C2F8AC42C3F88C523570022806D129
:1046D000B978784A01B91570012900D114700428FD
:1046E00006D1B978744A01B91570012900D1147046
:1046F000042812D1B878714918B9C1F88C52C1F8A0
:104700009042022803D1C1F88C42C1F8905201288E
:1047100003D1C1F88C42C1F89042F8BD70B505468E
:10472000594C4021204602F0E2FB0028F9D02946EE
:104730002046BDE8704002F038BB70B52DED088B07
:10474000B0EE409AF0EE609AB0EE41AAF0EE61AAA7
:10475000B0EE42BAF0EE62BAB0EE438AF0EE638A8F
:10476000FC20FFF7DBFF51EC190B04F0ECFCC4B2AA
:104770002046FFF7D3FF204604F0B9FC53EC192B79
:1047800004F0C0FB9FED4E9B53EC192B04F0BDFBD6
:1047900004F0D9FCC4B2FB2C00D9FB242046FFF75F
:1047A000BDFF51EC1A0B04F0CEFCC5B22846FFF752
:1047B000B5FF284604F09BFC53EC1A2B04F0A2FB37
:1047C00053EC192B04F0A1FB04F0BDFCC0B2FB2C90
:1047D00000D9FB20FFF7A2FF51EC1B0B04F0B3FC48
:1047E000C4B22046FFF79AFF204604F080FC53EC49
:1047F0001B2B04F087FB53EC192B04F086FB04F011
:10480000A2FCC0B2FB2800D9FB20FFF787FF51ECC8
:10481000180B04F098FCC4B22046FFF77FFF204637
:1048200004F065FC53EC182B04F06CFB53EC192BD3
:1048300004F06BFB04F087FCC0B2FB2800D9FB201E
:10484000FFF76CFF0020FFF769FFBDEC088BFD2030
:10485000BDE8704062E770B5054600240A4E295D48
:1048600000290BD0304602F0A0FA8021304602F039
:104870003EFB0028F9D0641CE4B2F0E770BD0000F4
:1048800000080240000C02400050004020030020BD
:104890002C050020CAFDBEDD2025642025642025CE
:1048A000642025640D0A000000004042008041425F
:1048B0002D0000202A000020780000200000414246
:1048C000000000000000594010B5FE4C40F2255198
:1048D000204602F017FB00280BD0204602F069FAB0
:1048E000C1B2F94A1078202803D2F84B1954401C61
:1048F000107010BD2DE9F04105460F460024F14E21
:104900000BE04021304602F0F2FA0028F9D0295D90
:10491000304602F04AFA641CE4B2BC42F1D34021B2
:10492000304602F0E4FA0028F9D0E7490020087088
:10493000BDE8F0817CB504460025009501958DF811
:10494000004003208DF801008DF802508DF80350CF
:104950008DF8045001208DF8050006216846FFF708
:10496000EBFD010A8DF806108DF807000821684656
:10497000FFF7C0FF0F2001F0B4FED34E30780028BF
:1049800040D00521D148FFF7D7FDD049030A4A7925
:104990009A4237D18A79C0B2904233D10878A04286
:1049A00030D10879C97800EB012004F0A0FB9FED1D
:1049B000C81B53EC112B04F0A8FA9FEDC71B53EC56
:1049C000112B04F0A2FA9FEDC61B53EC112B04F03F
:1049D0000EFB9FEDC51B53EC112B04F096FAC6E9B4
:1049E00002013570C24A0CB9C2E90001012C01D1A3
:1049F000C2E90201022C01D1C2E90401032C01D158
:104A0000C2E906017CBD70B58AB00646002508954E
:104A100009958DF8206003208DF8210001208DF884
:104A2000220006218DF823108DF824508DF82500E2
:104A300008A8FFF781FD010A8DF826108DF82700E0
:104A4000082108A8FFF756FF0F2001F04AFE9F4CEF
:104A5000A07A617A227AE379CDE90432CDE90610B1
:104A60006279A1792379E078CDE901320090039150
:104A7000A378627821789FA004F040FD05212046AC
:104A8000FFF75AFD6279010A8A420ED1A179C0B2BC
:104A900088420AD12078B04207D12079E17800EB32
:104AA0000120A1490860884805700AB070BD70B542
:104AB0008AB006460025089509958DF820600320E8
:104AC0008DF8210001218DF8221007218DF8231087
:104AD0008DF824508DF82500062108A8FFF72CFD3D
:104AE000010A8DF826108DF82700082108A8FFF785
:104AF00001FF0F2001F0F5FD744CA07A617A227A53
:104B0000E379CDE90432CDE90610A0796179227903
:104B1000E378CDE90210CDE90032A37862782178FC
:104B200082A004F0EBFC09212046FFF705FD627A24
:104B3000010A8A42B9D1A17AC0B28842B5D120789F
:104B4000B042B2D12079E17800EB012084490860BD
:104B5000A079617900EB012082490860207AE1792F
:104B600000EB012080490860574805709DE72DE95A
:104B7000FC470546002600960196EFB28DF80070BE
:104B80004FF003088DF801804FF0010A8DF802A064
:104B900006208DF803008DF804608DF805A006212D
:104BA0006846FFF7C9FC010A8DF806108DF807006A
:104BB00008216846FFF79EFE142001F092FD0521B2
:104BC0004248FFF7B9FC414C020ADFF8FC906179DA
:104BD00091420ED1A179C0B288420AD12078A84270
:104BE00007D12079E17800EB01204F49086089F86E
:104BF0000060962001F075FD8DF800708DF8018041
:104C00008DF802A007208DF803008DF804608DF860
:104C1000058006216846FFF78FFC010A8DF8061013
:104C20008DF8070008216846FFF764FE142001F0A4
:104C300058FD09212548FFF77FFC617A020A91425D
:104C40001AD1A17AC0B2884216D12078A84213D1D5
:104C50002079E17800EB012041490860A079617971
:104C600000EB01203F490860207AE17900EB012048
:104C70003D49086089F80060962001F032FDBDE8EA
:104C8000FC871CB50021009101918DF800000620E1
:104C90008DF801008DF802100E208DF803008DF8BC
:104CA000041001208DF8050006216846FFF744FC3A
:104CB000010A8DF806108DF8070008216846FFF7F5
:104CC00019FE1CBD00440040280300209005002070
:104CD000000000000000303F00000000008076402F
:104CE00000000000008066404AD8124DFB210940B8
:104CF00028040020CAFD31BEDD2025642020256463
:104D0000202025642020256420202564202025647F
:104D1000202025642020256420202564202025646F
:104D2000202025640D0A000060000020CAFD3233F7
:104D300034BEDD2025642020256420202564202029
:104D4000256420202564202025642020256420203F
:104D50002564202564202025642025640D0A000098
:104D600064000020680000206C0000201CB50020BA
:104D70000090019001218DF8001006218DF801109E
:104D80008DF8020004218DF803108DF80400032033
:104D90008DF8050006216846FFF7CEFB010A8DF865
:104DA00006108DF8070008216846FFF7A3FD88E785
:104DB0002DE9F04387B080460121084602F0EDFF5F
:104DC0000121480403F00DF8DFF8E89007220221E2
:104DD000484601F0AFFE07220321484601F0AAFE33
:104DE0000C27059702208DF8180003258DF819501F
:104DF00000248DF81A4001268DF81B6005A948464D
:104E000001F020FE300205908DF818608DF81950E1
:104E10008DF81A408DF81B6005A9274801F012FE95
:104E2000CDF80480ADF80840ADF80A40ADF80C406C
:104E3000ADF81040ADF80E70204C01A9204601F0ED
:104E40000FFF0121204601F084FF4021204602F09F
:104E500055F8012240F22551204602F02DF8262077
:104E60008DF800008DF801508DF802508DF8036028
:104E7000684601F0FAFC07B0BDE8F08310B50020E9
:104E8000FFF758FD0A2001F02CFC0120FFF752FD2E
:104E90000A2001F026FC0220FFF74CFD0A2001F059
:104EA00020FC0320FFF746FDBDE810400A2001F07A
:104EB00018BC0000000002400018024000440040FE
:104EC000F0B587B006460121042002F066FF0121FB
:104ED000C80402F086FFFC4F08220A21384601F080
:104EE00029FE08220B21384601F024FE4FF44060D1
:104EF000059002208DF818008DF8190000248DF817
:104F00001A4001258DF81B5005A9384601F09AFD7D
:104F10000196ADF80840ADF80A40ADF80C40ADF888
:104F200010400C20ADF80E00E84E01A9304601F00B
:104F300097FE0121304601F00CFF012240F225517D
:104F4000304601F0B9FF34208DF800008DF80140A3
:104F50008DF802508DF80350684601F086FC07B0CA
:104F6000F0BD10B5D94C40F22551204601F0CAFFE2
:104F700000280BD0204601F01CFFC1B2D44A1078A3
:104F8000402803D2D34B1954401C107010BD70B58B
:104F90000546CE4C4021204601F0A9FF0028F9D05B
:104FA00029462046BDE8704001F0FFBE7CB50021D7
:104FB0000091019100248DF8000006208DF8010079
:104FC0008DF802108DF803108DF8041001208DF873
:104FD000050006216846FFF7AFFA010A8DF80610B2
:104FE0008DF807006D46285DFFF7D1FF641C082C83
:104FF000F9DB7CBD7CB500210091019100248DF886
:10500000000006208DF801008DF8021001208DF8B7
:1050100003008DF804108DF8050006216846FFF79F
:105020008BFA010A8DF806108DF807006D46285D91
:10503000FFF7ADFF641C082CF9DB7CBD7CB50022BA
:105040000092019200248DF8000006208DF80100E6
:105050008DF8022002208DF80300080A8DF8040064
:105060008DF8051006216846FFF766FA010A8DF8EB
:1050700006108DF807006D46285DFFF788FF641C59
:10508000082CF9DB7CBDF0B507462DED028B85B011
:10509000B0EE408AF0EE608A0026019602960396F2
:1050A000049600248C4853EC182B90ED000B51EC27
:1050B000100B03F02AFF9FED891B53EC112B03F01B
:1050C00024FF9FED881B53EC112B03F01EFF9FED77
:1050D000871B53EC112B03F08AFF04F015F80546EB
:1050E0009FED840B51EC180B53EC102B04F058F887
:1050F00000D101258DF8047010208DF805008DF881
:10510000066016208DF807008DF8086002208DF8E3
:10511000090004208DF80A00280E8DF80D00280CD7
:105120008DF80E00280A8DF80B008DF80C500B211D
:1051300001A8FFF701FA010A8DF80F108DF8100091
:1051400001AD285DFFF723FF641C0D2CF9DB05B0D2
:10515000BDEC028BF0BD10B55D4B00221978002923
:1051600012D09C788C4202D09970DA7010BDDA7837
:10517000052AFBD21044C0B2D8700528F6D3062900
:10518000F4D90120587010BD9A7010BD70B5024658
:105190004F4D2878814200D90146002000234D4C14
:1051A00005E0265C02F8016B2354401CC0B2884223
:1051B000F7D32B70084670BD70B52DED068B82B00D
:1051C000002600960196002405287CD18DF8000069
:1051D00003208DF801008DF802608DF803608DF8D2
:1051E00004600A208DF8050006216846FFF7A4F93F
:1051F000010A8DF806108DF807006D46285DFFF74F
:10520000C6FE641C082CF9DB962001F06AFA3048CF
:105210004178012957D146702E483C213C38FFF790
:10522000B5FF04462B4D3C3D287805284BD1A11EE7
:105230002846FFF781F9010AC2B2281910F8023C8A
:105240008B4240D110F8010C90423CD1287903F0F8
:105250004EFFA5F16004C4E90001A87903F047FFFF
:10526000C4E902012E7B9FED25AB012E11D1287CD4
:1052700003F03DFF53EC1A2B03F0B9FE41EC180B81
:10528000A87B03F034FF53EC182B03F097FDC4E91F
:1052900004019FED1C9B8EB9A87B03F028FF41EC15
:1052A000180B287C03F023FF53EC192B03F09FFE0F
:1052B00053EC182B03F023FEC4E90401AE7C012E4D
:1052C00035D1A87D22E046E000080240004C0040B5
:1052D000380300204C060020580000200000000089
:1052E0000000E040000000000000E03F441741548F
:1052F000FB21094000000000000000000000000049
:105300000000594000000000000059C003F0EFFE0B
:1053100053EC1A2B03F06BFE41EC180B287D03F0C5
:10532000E6FE53EC182B03F049FDC4E90601002EFC
:1053300011D1287D03F0DBFE41EC180BA87D03F0B2
:10534000D6FE53EC192B03F052FE53EC182B03F04E
:10535000D6FDC4E9060102B0BDEC068B70BD2DE997
:10536000F04F04462DED048B83B000250195029586
:10537000AA46DFF8748506274FF4AF6901AE062C04
:1053800029D18DF804708DF805708DF80650D8F885
:105390001800484501DA002000E00120010C8DF8DA
:1053A0000710010A8DF808108DF80900062101A8E0
:1053B000FFF7C2F8010A8DF80A108DF80B0016F8F5
:1053C0000A00FFF7E4FD0AF1010ABAF1080FF6DB63
:1053D0000A2001F086F9072C2CD107208DF8040053
:1053E0008DF805708DF80650D8F81800484501DA98
:1053F000002000E00120010C8DF80710010A8DF853
:1054000008108DF80900062101A8FFF795F8010A98
:105410008DF80A108DF80B004FF0000A16F80A00FC
:10542000FFF7B5FD0AF1010ABAF1080FF6DB0A2011
:1054300001F057F9082C2CD108208DF804008DF8C4
:1054400005708DF80650D8F81800484501DA00209C
:1054500000E00120010C8DF80710010A8DF80810FA
:105460008DF80900062101A8FFF766F8010A8DF8FA
:105470000A108DF80B004FF0000A16F80A00FFF72B
:1054800086FD0AF1010ABAF1080FF6DB0A2001F0E5
:1054900028F9092C2CD109208DF804008DF805700D
:1054A0008DF80650D8F81800484501DA002000E0D1
:1054B0000120010C8DF80710010A8DF808108DF8F5
:1054C0000900062101A8FFF737F8010A8DF80A1034
:1054D0008DF80B004FF0000A16F80A00FFF757FD91
:1054E0000AF1010ABAF1080FF6DB0A2001F0F9F817
:1054F0009FEDFE9B4FF0010B1FED808B0B2C60D1BD
:105500000B208DF804008DF805708DF80650D8F842
:105510001800484501DA002000E00120010C8DF858
:105520000710010A8DF808108DF80900062101A85E
:10553000FFF702F8010A8DF80A108DF80B004FF002
:10554000000A16F80A00FFF722FD0AF1010ABAF173
:10555000080FF6DB1E2001F0C4F80B208DF80400C4
:105560008DF805708DF806508DF807B0E14853ECC2
:10557000192B90ED080B51EC100B03F01FFC53ECB2
:10558000182B03F0C2FC03F0BFFD010A8DF80810D0
:105590008DF80900062101A8FEF7CEFF010A8DF85B
:1055A0000A108DF80B004FF0000A16F80A00FFF7FA
:1055B000EEFC0AF1010ABAF1080FF6DB0A2001F04D
:1055C00090F80C2C60D10C208DF804008DF805703B
:1055D0008DF80650D8F81800484501DA002000E0A0
:1055E0000120010C8DF80710010A8DF808108DF8C4
:1055F0000900062101A8FEF79FFF010A8DF80A1095
:105600008DF80B004FF0000A16F80A00FFF7BFFCF8
:105610000AF1010ABAF1080FF6DB1E2001F061F869
:105620000C208DF804008DF805708DF806508DF86B
:1056300007B0B04853EC192B90ED080B51EC100B50
:1056400003F0BCFB53EC182B03F05FFC03F05CFD94
:10565000010A8DF808108DF80900062101A8FEF74F
:105660006BFF010A8DF80A108DF80B004FF0000A4D
:1056700016F80A00FFF78BFC0AF1010ABAF1080FCD
:10568000F6DB0A2001F02DF80D2C60D10D208DF8ED
:1056900004008DF805708DF80650D8F818004845BC
:1056A00001DA002000E00120010C8DF80710010A4A
:1056B0008DF808108DF80900062101A8FEF73CFFBF
:1056C000010A8DF80A108DF80B004FF0000A16F849
:1056D0000A00FFF75CFC0AF1010ABAF1080FF6DBD9
:1056E0001E2000F0FEFF0D208DF804008DF80570DF
:1056F0008DF806508DF807B07E4853EC192B90EDCD
:10570000080B51EC100B03F059FB53EC182B03F072
:10571000FCFB03F0F9FC010A8DF808108DF8090074
:10572000062101A8FEF708FF010A8DF80A108DF87E
:105730000B004FF0000A16F80A00FFF728FC0AF1E8
:10574000010ABAF1080FF6DB0A2000F0CAFF0E2C9E
:105750005DD10E208DF804008DF805708DF806508F
:10576000D8F81800484501DA002000E00120010CBB
:105770008DF80710010A8DF808108DF80900062130
:1057800001A8FEF7D9FE010A8DF80A108DF80B006A
:105790004FF0000A16F80A00FFF7F9FB0AF1010AB8
:1057A000BAF1080FF6DB1E2000F09BFF0E208DF8EB
:1057B00004008DF805708DF806508DF807B04D483F
:1057C00053EC192B90ED080B51EC100B03F0F6FA8B
:1057D00053EC182B03F099FB03F096FC010A8DF8AB
:1057E00008108DF80900062101A8FEF7A5FE010AA0
:1057F0008DF80A108DF80B004FF0000A16F80A0019
:10580000FFF7C5FB0AF1010ABAF1080FF6DB142C09
:1058100003D0D8F81800484528DA14208DF8040081
:105820008DF805708DF806508DF807B0314853ECAF
:10583000182B90ED080B51EC100B03F066FB03F0F6
:1058400063FC010A8DF808108DF80900062101A8F3
:10585000FEF772FE010A8DF80A108DF80B00002485
:10586000305DFFF794FB641C082CF9DB03B0BDEC42
:10587000048BBDE8F08F10B51F4C207AC0070CD008
:105880000D20FFF76CFD192000F02BFF0E20FFF715
:1058900066FDA068401CA06010BD0B20FFF75FFDF7
:1058A000192000F01EFF0C20FFF759FDF1E71FB58E
:1058B0000121202002F095FA4FF47A7002905320D3
:1058C000ADF804000020ADF80600ADF80C000B4C5C
:1058D00001A9204601F00AFC01221146204601F0F0
:1058E000D8FF012120460BE0AC0400209A99999939
:1058F0009999B93FC80000203803002000140040E7
:1059000001F072FC37208DF8000001208DF80300B3
:105910008DF801008DF80200684600F0A6FF1FBD5B
:1059200010B5012000F078FE07494868401C486027
:10593000064A904202DD42F210704860BDE8104015
:105940000121034801F0C7BF38030020CA33030018
:105950000014004070B505460C4645F2555002F063
:1059600029FD284602F029FD204602F029FD02F01B
:105970002AFDBDE8704002F02BBD02F024BD0000FE
:105980001CB50121022002F008FA4FF4407000908B
:1059900001248DF8044000208DF8060003208DF8C6
:1059A00005008DF807406946FE4801F04BF8FE48B7
:1059B000046044601CBD70B5FA48016821F44021C0
:1059C0000160016841F480210160F74C01206060B2
:1059D0002060042000F057FE00256560042000F0E0
:1059E00052FE256070BD10B5EE48016821F44021DB
:1059F0000160016841F480210160EB4C00202060CF
:105A00006060042000F03FFE012020606060BDE87F
:105A10001040042000F037BE70B50024E148016852
:105A200021F44021016001680160E04D0126C5F8C4
:105A3000A462012000F027FEC5F8A062012000F05A
:105A400022FE07E0641CE4B2FA2C03D9FFF7CBFF77
:105A5000012070BDD5F824020028F3D1C5F8A002BA
:105A600070BD70B5D04C00252560CE48016821F48A
:105A700040210160016841F48021016065600220DD
:105A800000F001FE01202060022000F0FCFD2560F6
:105A900070BD70B5C44C00252560C248016821F472
:105AA00040210160016841F48021016001266660A7
:105AB000022000F0E8FD2660022000F0E4FD2560F1
:105AC00070BD2DE9F0410546B648016821F440213A
:105AD0000160016841F480210160B44E4FF000087C
